:020000040801F1
:10C0000000C00020A11D0208251F02089920020877
:10C01000AD200208B1200208B5200208000000008F
:10C020000000000000000000000000000000000010
:10C030000000000000000000000000000000000000
:10C0400000000000000000000000000000000000F0
:10C0500000000000000000000000000000000000E0
:10C0600000000000000000000000000000000000D0
:10C070000000000000000000C5C40108000000002E
:10C08000000000000000000000000000B9200208CD
:10C09000BD200208000000000000000000000000B9
:10C0A0000000000000000000000000000000000090
:10C0B00000000000791702080000000000000000E6
:10C0C0000000000000000000000000000000000070
:10C0D0000000000000000000000000000000000060
:10C0E0000000000000000000000000000000000050
:10C0F0000000000000000000000000000000000040
:10C10000000000000000000000000000000000002F
:10C11000000000000000000000000000000000001F
:10C12000000000000000000000000000000000000F
:10C13000C0E9022300230360704700BFF0B4424E01
:10C1400080EA060414F00F0F11D0076817409F42D1
:10C1500069D1041D03E005681540BD4263D186EA3C
:10C16000040515F00F0F204604F10404F3D18142B9
:10C1700058D9046814409C4255D144681440A342E5
:10C180005FD184681440A3424FD1C46814409C42DC
:10C190004FD1C6438E19F60605463DD500F110066F
:10C1A000B1423FD90569074615409D4245D14569D1
:10C1B00015409D4243D183691340A34236D1C369E0
:10C1C00035461340A342304626D033E02F6917404E
:10C1D000A74232D16F691740A74230D1AF693046CC
:10C1E0001740A74222D1EF6903F110051740A7427B
:10C1F00020D11F6906F110061740A7421DD15F69C3
:10C200001740A7421BD19F6930461740A7420DD166
:10C21000DB691340A3420DD100F11006B14205F1D4
:10C220001003D3D80846F0BC7047064606F1080054
:10C23000F9E7064606F10C00F5E73046F3E714305F
:10C24000F1E70430EFE700BF685000202DE9F04F20
:10C25000DFF8608200F500740546D8F8000485B068
:10C2600008F5816BCDF80CE00294C2464FF4E85912
:10C270000346DBE9006748F2800228460299C0F2D3
:10C280000302FFF75BFF431B99107418029E47EBF4
:10C29000E175B042CBE90045864A00F0E8800768C6
:10C2A00017F07F4F40F0DE80DAF8103441F6E847AF
:10C2B00009FB03A1D1F818340A33BB4200F2948081
:10C2C00002F58362D8F810742E0109FB0785B5F8D2
:10C2D0002854D8F81014D8F81034019609FB0383B9
:10C2E000D3F8187446EA14760196AEB209FB0175CC
:10C2F0002401009400215219DDE90045361941EB73
:10C30000050756EA070502F1120C00F0A78000218C
:10C3100080244FEAD61E4EEA4765FB0946EA04022E
:10C320001F462E460CF80120013156EA0703F0D1D2
:10C330004F1ED8F810641CF8074009FB068504F06E
:10C340007F020CF80720D5F818740668C919C5F8DB
:10C350001814D8F8104448F28003C0F2030309FB14
:10C3600004873340C8F80034026800250024CBE974
:10C3700000450025A7F8285415060AD5DAF81064F8
:10C3800009FB06A1B1F82844A7B247F00105A1F8BE
:10C39000285414040AD5D8F8106409FB0681B1F8B2
:10C3A0002844A7B247F00205A1F82854D1030AD5C2
:10C3B000D8F8106409FB0681B1F82844A7B247F009
:10C3C0000405A1F8285492030AD5D8F8102409FBD3
:10C3D0000286B6F828148CB244F00807A6F8287430
:10C3E00005460026002746E748F25031C2F2000118
:10C3F00091F8303B002B47D048F25036C2F200068D
:10C4000096F8313B002B48D1DAF81074DAF8106452
:10C41000C7F10101284F02F5836209FB0676C6E9E0
:10C420000245DAF8107409FB01A609FB07A7B7F863
:10C430002874BFB2A6F82874CAF81014DAF81014D9
:10C4400009FB01F15618C6E90245535048F2503134
:10C450000123C2F2000181F8333B33E74FF0FF378D
:10C46000002166E71548039901F06EFEFEE7D2F859
:10C4700010044FF4E85102F5836201FB0023C3E985
:10C48000024505B0BDE8F08F4FF46140CEF20000E8
:10C490004FF48043C0F88030F3E74FF4614008491F
:10C4A000CEF200004FF480430122C0F8803081F8C2
:10C4B000322BE6E76850002080540020202F02082D
:10C4C00050830020684620F007018D4631B50024D6
:10C4D000C4F20204236875461B0409D42068400492
:10C4E00019D42268920408D4BDE8314085467047CB
:10C4F0001048714601F028FEFEE70F48FFF7A6FE40
:10C500004FF40051616023685B04EDD50B48294668
:10C5100001F01AFEFEE70A48FFF798FE4FF480404C
:10C52000606022689104DFD50648294601F00CFEC0
:10C53000FEE700BF342F020868520020802F020857
:10C54000685000205C2F02082DE9F00F45F26801C9
:10C55000C2F200014FF430530022C4F2010384B050
:10C5600001F583690B20052504264FF4A05A4FF0EE
:10C57000020B1A8009F5E8579A809A841A82188566
:10C580009D8501961A839A83A3F80CA09A864FF092
:10C59000000A1A87A3F840B04FF0000BC9E902ABBC
:10C5A000C1F81824C7E902AB42F6F867C0F60207E3
:10C5B00030240297C4F2020401F50459022741F223
:10C5C0001008C9F81820C4F2010822606760029FB1
:10C5D000C4F808804FF4805C43F6B128E76044203B
:10C5E000C4F80080C4F2010C2024CCF81040C4F23E
:10C5F00002004FF4007402604FF4887544600C260A
:10C600004FF0C8444FF0040A8460C1F21005CAF22A
:10C61000000ACAF2000643F2AF54C1604FF020494D
:10C620000460CAF800503560D9F80060144646F43A
:10C630000026C9F80060C4F202044FF461404FF4D0
:10C6400070466660CEF200004FF48044046080F8CB
:10C650000E231C8801F58160A4B244F001044FF060
:10C66000000A4FF0000B1C801546C0E900ABC1F872
:10C67000002404B0BDE8F00F704700BFF8B54FF4D8
:10C68000224503460021C0F24A454FF6FF76B5FB2E
:10C69000F3F4013C1A184F1CB44202EB00030AD910
:10C6A000B5FBF2F2541E7A1CB442394603D9B2F5F6
:10C6B000803F1146EBD11020E7F7C8FD112021463D
:10C6C000E7F7C4FD12206108BDE8F840E7F7BEBDFA
:10C6D0002DE9F04F90E88800BB42ADF5717D8146B1
:10C6E0000E46924627D01C4654F8040BFB1A0568E8
:10C6F000A3F1040EAB68CEF380059847A7421AD089
:10C7000045B154F8040B3146026893685246984785
:10C71000A74210D0254655F8040B3146036852460F
:10C720009B6898476068314604685246A3682C1D90
:10C730009847A742EED10021304604F03FFF56450E
:10C7400049DAF3074CBF00AF78AF384600214FF409
:10C75000F07206F016FA99E82001454534D02C46CF
:10C7600054F8040BC5EB080B0168ABF1040ED1F8CB
:10C770000CC0F02239463346CEF3800BE047A0458B
:10C7800022D0BBF1000F09D06868F0220568394655
:10C79000ED6833460434A847A04515D0254655F822
:10C7A000040BF022D0F800E03946DEF80CC0334626
:10C7B000E0476068394602683346D2F80CC02C1D49
:10C7C000F022E047A045E9D1F0213846013604F0D7
:10C7D00071FE5645B5D10DF5717DBDE8F08F00BFF6
:10C7E0000CB470B58EB012AC54F8042B05460E464E
:10C7F0002346322101A8009406F049FB304601A9E6
:10C8000002F0AEFF284600214FF4C872FFF760FF28
:10C810000EB0BDE8704002B0704700BF2DE9F04196
:10C820004B1C0C46D9B2012986B0064640F2BF80A7
:10C83000012C68D0022C00F09580032C60D0601C85
:10C840001ED0042C4AD0052C17D1764D01AF1321F0
:10C850002B8F754A384606F02BFB05213A463046A9
:10C8600005F018FA2A8F6B8F9A4200F0D480304678
:10C87000052148F2104205F013FA06B0BDE8F08138
:10C88000684D01AFDFF8B481684898F8362B03C8CB
:10C8900005EB82020B0C0190ADF808100DF10A00B7
:10C8A000D16A8DF80A3006F074F9032130463A4611
:10C8B00005F0F0F998F8361B98F8370B814200F034
:10C8C0009C803046032148F2104205F0E9F9042C1F
:10C8D00005D0611C03D0052CCFD1B8E7514D042100
:10C8E0006A6B304605F0D6F9042130464FF6FF72E8
:10C8F00005F0D6F9052C01D0621CBED101AFA6E728
:10C90000484D01AFBEE7474D01AF4948BE460FC88D
:10C9100095F928C0AEE807000DF1110805EB8C0170
:10C9200089684046AEF8003006F033F90121304600
:10C930003A4605F0AFF995F9282095F929300121FB
:10C940009A420CBF4FF6FF7248F21042304605F093
:10C95000A7F9022C0AD0631C08D0032C92D0042C17
:10C96000B9D1BCE72F4D01AF0DF11108314ABE46D8
:10C970000FCA95F92AC0AEE8070005EB8C00816864
:10C980004046AEF8003006F004F9022130463A463F
:10C9900005F080F995F92A1095F92B30994233D09A
:10C9A0003046022148F2104205F07AF945E7DFF8F7
:10C9B0008C8001AF204A3B4607CA98F834EB03C38A
:10C9C000184D03A855F82E101A7006F0E2F8002151
:10C9D00030463A4605F05EF998F8342B98F8353B26
:10C9E00000219A420CBF4FF6FF7248F210423046C7
:10C9F00005F056F9631C88D01CE7304603214FF63A
:10CA0000FF7205F04DF962E7304602214FF6FF72E2
:10CA100005F046F911E7304605214FF6FF7205F0A3
:10CA20003FF92AE700500020D82F0208D02F020833
:10CA3000B02F0208C02F0208A42F02085083002044
:10CA400070B50C4605467146052C07D8DFE804F0A2
:10CA500013192837030C1D4801F076FB28462146A0
:10CA6000BDE87040FFF7DABE194B1A8F10465A879F
:10CA7000FFF704FEF2E7174890F8341B80F8351BE7
:10CA8000ECE7134E092096F82820002186F829208B
:10CA9000E7F7DCFB0A2096F92910E7F7D7FBDDE77B
:10CAA0000B4E0B2096F82A30002186F82B30E7F742
:10CAB000CDFB0C2096F92B10E7F7C8FBCEE7054815
:10CAC00090F8361B80F8371BC8E700BFE82F020834
:10CAD0000050002050830020F0B5574C574F0123E1
:10CAE00084F8313B97F83C208BB006460D46002A6F
:10CAF0004ED100220023CDE90623CDE90423504A7C
:10CB00000021504F0292ADF82010ADF8221033688A
:10CB100030465A6902A99047D0B196F82800B8B9B2
:10CB2000BDF822303968C3F38000C3F3C0028DE83A
:10CB30000500049A4448891803F00102C3F3400336
:10CB400001F05CFCD4F8383BC018C4F8380BDEE7C1
:10CB50003E4801F053FCD7E90001DDE90423121837
:10CB600043EB0103344EC7E9002335B9002084F8B4
:10CB7000330B84F8310B0BB0F0BD0699344889189B
:10CB800001F03CFCD6F8383BC218C6F8382BEDE76C
:10CB9000304801F033FCD4F8381B43182E48C4F851
:10CBA000383B01F02BFCD4F8382B81182B48C4F803
:10CBB000381B01F023FCD4F8383BC2182848C4F8CD
:10CBC000382B01F01BFCD4F8381B43182548C4F857
:10CBD000383B01F013FCD4F8382B81182248C4F8F4
:10CBE000381B01F00BFCD4F8383BC2181F48C4F8BE
:10CBF000382B01F003FCD4F8381B43181C48C4F848
:10CC0000383B01F0FBFBD4F8382B81181948C4F8E5
:10CC1000381B01F0F3FBD4F8383BC2181648C4F8AF
:10CC2000382B01F0EBFBD4F8381B00234018C4F874
:10CC3000380B87F83C305CE7508300200050002020
:10CC4000E82E0208908E00203C310208383102089C
:10CC5000303102080430020838300208503002082F
:10CC60006C3002088C300208AC300208CC3002086C
:10CC7000EC300208FC3002081431020870B5114E85
:10CC8000114B012286F8312B93F83C10054611B167
:10CC9000002083F83C002B6843B100242A19907CC3
:10CCA00001F0FCF929680134A142F7D82868D6F8C8
:10CCB000382B0023111886F8333BC6F8381B86F84A
:10CCC000313B70BD5083002000500020014B0360B9
:10CCD000704700BFD02E020800230B70704700BFC2
:10CCE000014B0360704700BFD02E0208034B10B504
:10CCF0000446036004F02EF8204610BDD02E020832
:10CD0000034B10B50446036004F024F8204610BD20
:10CD1000D02E0208042A23D9438B03F0080293B2D1
:10CD2000002B0CBF302231220A70438B03F0040227
:10CD300093B2002B0CBF302231224A70438B03F098
:10CD4000020293B2002B0CBF302231228A70408B3A
:10CD5000002310F0010F0CBF302231220B71CA707A
:10CD6000704700BFF8B5426803680446D01A0F4602
:10CD7000811005D04D00A94226D96FF0030600E0CE
:10CD80000426304603F0D6FF054694E809001A1A37
:10CD900093109A003968AF1807D045F8231094E82B
:10CDA00009001B1A9B109A00AF1823B101462846B0
:10CDB00005F0CFFE2068043708B103F0CBFFAE19B1
:10CDC00084E8A000A660F8BDB5F1804FD5D2CE00B2
:10CDD000D7E700BF38B5426884680346A2420D46D3
:10CDE00006D009680AB111604268101D586038BD4C
:10CDF000FFF7B8FF38BD00BF2DE9F04F0320ADF5B8
:10CE0000397D0021E7F722FA04F0CEFBD24BD34C58
:10CE10001868D34D322100234FF4FC620094019036
:10CE2000D04E782000F05EFF5620212100234FF4E1
:10CE3000FC620095E7F708FA00233E2010214FF42A
:10CE4000FC620096E7F700FA4FF48051C4F2020149
:10CE50008F694FF46052C4F2010247F4804040F2FF
:10CE6000712442F20C0540F604038861C4F2010308
:10CE7000148195811E68242026F0F00141F090076E
:10CE80001F601A68012122F4706444F480651D60FB
:10CE9000E7F7DCF905200021E7F7D8F909200021A0
:10CEA000E7F7D4F945F20003C2F2000393F9291021
:10CEB0000A20E7F7CBF90B200021E7F7C7F945F285
:10CEC0000000C2F2000045F2000690F92B10C2F2F9
:10CED00000060C20E7F7BAF9708FFFF7CFFB202090
:10CEE0000146E7F7B3F907200021E7F7AFF908207B
:10CEF0000121E7F7ABF900200146E7F7A7F9012088
:10CF00000021E7F7A3F908200021E7F7A1F90021A4
:10CF10000920E7F79DF9E7F78DF9E7F78BF904208A
:10CF2000E7F798F94FF64877C1430F40002FF6D145
:10CF30004FF6FF7004F078FC4FF4FA7004F09EFC9A
:10CF4000FFF702FB884988A801F07EFE874994A874
:10CF500001F07AFEF0250DF594784FF4C87188AA97
:10CF60005AA802F0FBF94FF4C8733A4640210095E5
:10CF7000404652AC10971197129703F0FDFA10A893
:10CF80000BA97B4ECDF82C80FFF724FF5AAA88A965
:10CF9000204603F021FD4FF03C0AAA2343F6E71296
:10CFA0004BA80BA9A280C4F808A0E3600B94FFF77C
:10CFB00011FF716830680EAC03C456F8080F0DF10C
:10CFC0004C0E7168B268F3684FF00208AEE80F00CB
:10CFD000306971690126AEE80300402003F0AAFE23
:10CFE0003B465AAA88A9814602F0A4FCBDF838B095
:10CFF0009620C9F80400A9F80CB00BA94BA8CDF8ED
:10D000002C90FFF7E7FED9F80810D9F8042001EBBF
:10D01000D17302EB63041C20079403F08BFE079A84
:10D02000814613AB322102F0B3FB89F80C60A9F8FA
:10D030000EB089F80D800BA910A8CDF82C90FFF741
:10D04000C9FE402003F076FE33465AAA88A98146DD
:10D0500002F070FCBDF83AB07820C9F80400A9F8D5
:10D060000CB00BA94BA8CDF82C90FFF7B3FED9F864
:10D070000810D9F8042001EBD17302EB63041C20E3
:10D08000079403F057FE079A81460DF152033221AF
:10D0900002F07EFB89F80C60A9F80EB089F80D80CB
:10D0A0000BA910A8CDF82C90FFF794FE402003F0B8
:10D0B00041FE5AAA434688A9814602F03BFCBDF8CE
:10D0C0003CB05A20C9F80400A9F80CB00BA94BA831
:10D0D000CDF82C90FFF77EFED9F80810D9F804207F
:10D0E00001EBD17302EB63041C20079403F022FED2
:10D0F00016AB8146079A322102F04AFB89F80C6090
:10D10000A9F80EB089F80D800BA910A8CDF82C90C5
:10D11000FFF760FE402003F00DFE03235AAA88A902
:10D12000814602F007FCBDF83EB0C9F804A0A9F89A
:10D130000CB00BA94BA8CDF82C90FFF74BFED9F8FB
:10D140000800D9F8041000EBD0721C2001EB620A31
:10D1500003F0F0FD0EE000BF409F00207431020894
:10D1600084310208A0310208805400208071002020
:10D17000002F0208524681460DF15E03322102F073
:10D1800007FB89F80C60A9F80EB089F80D8010A88B
:10D190000BA90DF5CC7ACDF82C90FFF71BFE4AF2C7
:10D1A0002012C0F2070200235AA9504602F020FCC8
:10D1B0004FF0B40947F6EF3332244BA80BA9AAF875
:10D1C0000430AAF80630CAF80840CAF80C90CDF826
:10D1D0002CA0FFF7FFFD5AA974A803F089FC0DF1FC
:10D1E000640A4FF47F4274AB4BA80BA97C920B935B
:10D1F000FFF7F0FD5AA9504603F012F90DF17C0B30
:10D20000FF244BA80BA9CAF80C40CDF82CA0FFF7BF
:10D21000E1FD2A46C04B3946584602F0B9FA0DF1F5
:10D22000980A10A80BA98BF81060CDF82CB0FFF766
:10D23000D1FD2A46B94B4121504602F0A9FA0DEB27
:10D24000090B10A80BA98AF81060CDF82CA0FFF7E5
:10D25000C1FD2A46B24B8221584602F099FA0DF1DF
:10D26000D00A10A80BA98BF81060CDF82CB0FFF7EE
:10D27000B1FD2A46AB4B4946504602F089FA10A848
:10D280000BA98AF81060CDF82CA0FFF7A3FD0623A8
:10D2900074224946A0A804F045FC3946A0A8A24A39
:10D2A00004F0F8FC3946A0A84FF6FF7204F0F8FC31
:10D2B00039463246A0A804F0F9FC3146A0A89A4AA3
:10D2C00004F0E8FC3146A0A84FF6FF7204F0E8FC39
:10D2D000A0A84146944A04F0DDFCA0A841464FF6C0
:10D2E000FF7204F0DDFC3246A0A8414604F0DEFCEB
:10D2F0000321A0A88C4A04F0CDFC0321A0A84FF67E
:10D30000FF7204F0CDFC03213246A0A804F0CEFC4D
:10D310000421A0A8854A04F0BDFC0421A0A84FF672
:10D32000FF7204F0BDFC04213246A0A804F0BEFC4C
:10D330000521A0A87C4A04F0ADFC4FF6FF72A0A81E
:10D34000052104F0ADFCA0A84FF0FF310DF1EC0A6F
:10D35000A5978DF8A072A0ADFFF760FA10A80BA9F1
:10D360000B95734CFFF736FD3A464FF4C3716E4B85
:10D37000504602F00DFA46F2F91610A80BA90996CC
:10D380008AF80D808AF80C80CDF82CA0BB46FFF7F8
:10D3900021FD84F8487B099F4DF68366C1F2B617DC
:10D3A000C4F21B36634D099708965AA85F9901F09D
:10D3B000BDFD0CA80DA905F091FB94F8338BD5F8B1
:10D3C0001094D5F810044FF4E85101FB0052D2F844
:10D3D0001834642202FB03FC09980CF674664FEAC9
:10D3E000D607A0FB076CD5F81014609B94F8306B3F
:10D3F0005B004FEA9C1CDDF830E03031002E00F07D
:10D40000A581B8F1000F00F0F58248F25037C2F262
:10D410000007D7F8380B029102FB00F202F57416F0
:10D42000089A06F51060A2FB00605721460D039193
:10D430008DE80050049610A851463F4AFFF7D0F9F6
:10D4400097F8303BE3B194F8378BC9F1010EB8F18E
:10D45000000F40F0A7810EEB4E094FEA0910B8AE5D
:10D46000311851F8C03C0DF5087C0CEB00079E68A4
:10D47000384600220023B04738464146FFF72CFBD0
:10D4800004F0F6F980464FF6FF7004F0CDF98146BE
:10D49000002800F0538110F4804F0BD094F8302B0B
:10D4A00042B9C5F81024FFF74FF85AA8002200230C
:10D4B00001F04EFF19F4005F03D194F8321B0029EC
:10D4C00056D094F8303B002B40F0A48148F25037FE
:10D4D000C2F2000797F8326B002E40F09B8148F2B1
:10D4E0005031C2F2000191F8377B144B144A45F2D7
:10D4F0000006002F14BF1046184600F09DFF83461B
:10D500005146104A5B4610A8FFF76AF90E4F58467D
:10D5100000F0A6FD1AE000BFC4310208CC310208B9
:10D52000D4310208DC310208DC340208E831020898
:10D530005083002068500020F43102085431020862
:10D540006431020828320208908E0020C2F20006E0
:10D550000121002200234FF4FA7086F83C10C7E93D
:10D56000002384F8301B04F089F9002084F8320B82
:10D5700019F4807F1CD0BBF1000F04D0002384F885
:10D58000303B00F0BDFDC34800F056FF804601F07F
:10D5900083F8002800F0738110A85146BE4A434624
:10D5A000FFF71EF940F6B83004F068F94FF0000BB1
:10D5B0009DF8A01219F4007F1CBF81F001018DF8C5
:10D5C000A012002900F0F68019F4806F1CD0A599F4
:10D5D000052915D8DFE801F07C03A05C146545F24D
:10D5E0000007C2F2000797F82820002A00F0DE8129
:10D5F000501EC3B245F20006C2F2000686F828307B
:10D60000A0A849B2FFF70AF919F4006F1CD0A59938
:10D61000052915D8DFE801F065036E53142A45F299
:10D620000007C2F2000797F82800072800F0CE8113
:10D63000431CDAB245F20006C2F2000686F8282042
:10D64000A0A849B2FFF7EAF819F0080F40F03481BA
:10D6500019F4004F40F02C8119F0400F3FF4A5AEB3
:10D66000A0A89DF99412FFF7EBF99EE645F200039E
:10D67000C2F200031E8F894FB6F5FA6FC0F0988191
:10D6800044F61F629642DBD806F57A733B87D7E7EC
:10D6900094F8366BD6F1010738BF002784F8367B43
:10D6A000AEE745F20006C2F20006378F7B4A0A2F2A
:10D6B00000F28381022FA3D9781E1087A0E794F887
:10D6C000366BD6F1010738BF002784F8367BB7E701
:10D6D00094F8347BD7F1010238BF002284F8342B50
:10D6E0008EE794F8347BD7F1010038BF002084F82E
:10D6F000340BA5E745F2000CC2F2000C9CF82A009E
:10D70000072800F06181431CDAB245F20006C2F23C
:10D71000000686F82A2093E745F20002C2F20002D2
:10D7200092F82A30002B00F04D815E1EF0B245F2D7
:10D73000000EC2F2000E8EF82A0061E704F098F89D
:10D74000C8EB000063287FF69EAEB3E648F2503780
:10D75000C2F20007D7F8380B029102FB00F202F583
:10D760007416089A06F51060A2FB00602D21460D84
:10D7700003918DE80050049610A85146484AFFF7DF
:10D780002FF897F8303B002B3FF47AAEB8F1000F3A
:10D790003FF476AE94F8378BC9F1010EB8F1000F63
:10D7A0003FF459AE3F4A4FF4E85707FB0E20FFF70E
:10D7B00065FA65E619F0080F07D094F8352B002AB2
:10D7C00000F09380012A00F0CE8019F4004F07D0BA
:10D7D00094F8357B002F00F08F80012F00F09F80A0
:10D7E00019F0400F52D119F4806FDDF87C8103D01D
:10D7F00018F11D0F80F2878019F4006F3FF4D5AD4A
:10D80000B8F1020F3FF7D1AD5AA808F1010101F0BC
:10D810008DFBCAE594F8322B002A7AD194F8370BA5
:10D82000002184F8301B00284AD1D5F8106400226A
:10D8300006EB4600070188AEF159F01900238F6806
:10D84000B847D5F8102488A802EB4203012100EB69
:10D850000310FFF741F900F053FC00283ED0D4F844
:10D86000386B10A8009651460F4A5B46FEF7B8FF8A
:10D870004FF4FA6004F002F84FF0000B75E610A8C0
:10D8800051460A4A4346FEF7ABFF8BE674A803F005
:10D8900053F9A8E790320208A03202080050002095
:10D8A000F43102088054002064320208BC320208BD
:10D8B000A0A804F0FFF9CFE6A0A804F007FAC7E695
:10D8C000D5F81034DFF87CE14FF4E85707FB03E0AC
:10D8D000FFF7D4F900F014FC0028C0D110A851467D
:10D8E000544A5B46FEF77CFFC2E703F0D1FF41429A
:10D8F0005AA801F0F3FC68E703F0CAFF01465AA8F2
:10D9000001F0ECFC6CE75AA808F1FF3101F00EFBC6
:10D9100072E710A85146484AFEF762FF7EE760AE04
:10D92000D6E9002300270DF5887C002643490DF534
:10D930008C78CCE90067C8E90067889F4291002194
:10D9400088A8ADF82011ADF82211B9688847889BE6
:10D9500088A85A6942A9904746A8D0E900235AA846
:10D9600001F0F6FC3CE7354E60AF4296D7E9002364
:10D9700000260DF58C7C0DF5887E0027CCE900672C
:10D98000CEE90067ADF82011ADF82211889988A87A
:10D990008E68B047889B88A89A6942A9904744A896
:10D9A000D0E900235AA801F0D3FC0EE7072321E6B3
:10D9B000632E0DD964363E8742E6642F0DD80A3FA8
:10D9C00017871DE60720B2E600229EE6002231E618
:10D9D000092E08D90A363E8732E6B7F5FA6F05D820
:10D9E000643F17870CE6701C388729E6A7F57A7321
:10D9F000138705E648F25037C2F20007D7F8380B14
:10DA0000029102FB00F202F57416089A06F5106006
:10DA1000A2FB00604021460D03910DEB01008DE853
:10DA2000005004965146064AFEF7DAFE97F8303B5E
:10DA300026E500BF8032020840320208E82E0208C4
:10DA4000F43102088054002082B01C23ADF8060097
:10DA5000C4F2020301E0586810B11A68D007FAD482
:10DA600000BF00BF00BF00BF00BF00BF00BF00BFBE
:10DA700000BF00BF4FF4A052C4F201021C234FF4B8
:10DA800080515161C4F2020301E05A6812B1186872
:10DA9000C107FAD41C20C4F2020045F290530DF1E4
:10DAA000060101220360C16042604FF0C04145F2AF
:10DAB000915281600346026001E0596811B1186813
:10DAC000C207FAD400BF00BF00BF00BF00BF00BF45
:10DAD00000BF00BF00BF00BF4FF4A053C4F201035A
:10DAE0004FF480521A6102B0704700BF30B51C235A
:10DAF00085B005460C46C4F2020301E0586810B137
:10DB00001A68D007FAD42A20FFF79EFFE4B200215A
:10DB10001C23EF22ADF80010ADF80240ADF8041060
:10DB2000ADF80620C4F2020301E0596811B118688B
:10DB3000C107FAD41C24C4F2020445F2905300AA8F
:10DB400023600421E2604FF0C04345F291526160CE
:10DB50002B20A3602260FFF777FF280A0121EDB296
:10DB60008F23ADF80800ADF80A50ADF80C10ADF8F1
:10DB70000E30204601E0416811B10268D207FAD4A4
:10DB80001C23C4F2020302AA042145F2905018603B
:10DB9000DA6059604FF0C04245F291519A602C20F2
:10DBA0001960FFF751FF05B030BD00BF70B40278B7
:10DBB000002A3FD0214D0023EE1D202107E004461E
:10DBC000204610F8012BEA5462780133DAB12E2A8C
:10DBD000F5D1441C072BF3DC013BEA18D043531C5E
:10DBE0003018B342517000F001020AD01AB103F8A4
:10DBF000011FB34205D0581C59700233B342417023
:10DC0000F9D10823DCE70A2B11DC5A1C20210A2A4F
:10DC1000E95403F001000ADC18B1A95401320A2AC0
:10DC200005DC531CA95402320A2AE954F9DD0348E1
:10DC300070BC70471346014DE7E700BFA08E00207F
:10DC4000F8B59CF802306546144613B10246084602
:10DC50001146C1F30F21C0F30F20FFF747FFE6F78E
:10DC600003FB45F25656C4F580714C00C5F255567B
:10DC700086FB041300F4FC67C3EBE47359422A8863
:10DC8000FE1006FB01F7C50002F4FC6400F47840C6
:10DC9000EEB2E510041203F5807306FB01F604FBF7
:10DCA00001F105FB0370D50002F47842121202FB69
:10DCB00003110028ECB204FB0365B8BFFF308312E8
:10DCC0005C010029B8BFFF31C812002D44EAC02210
:10DCD000B8BFFF3542EAE52188B2BDE8F840E6F773
:10DCE00097BA00BF2DE9F04784B00CAC54F8046B30
:10DCF0000B4D8246894690461F46372132462346C1
:10DD00002846039405F0C3F800950446494650465A
:10DD100042463B46E6F798FA204604B0BDE8F08755
:10DD2000AC8E00202DE9F04F85B01E46BDF838308E
:10DD30000D464FF087411446ADF80C3004F0C0F9A1
:10DD400004F00EFB4FF087410746204604F0B8F977
:10DD500004F006FB4FF087410446284604F0B0F972
:10DD600004F0FEFA4FF087410546304604F0A8F96A
:10DD700004F0F6FAE31B461B83EAE371A1EBE371BF
:10DD800086EAE672A2EBE67291428246A6463846E1
:10DD9000C0F2D18000218DF80E10BC4205DA284671
:10DDA00039465546274682460C4607F1800929F038
:10DDB000FF08320292FBF3F6C7EB080306FB03F3FE
:10DDC000002BB8BFFF3305EB23255FFA85FB5FFA15
:10DDD00089F0C0F58079CBF5807101FB09F225F05F
:10DDE000FF07394612120DF10C0C4046FFF728FFD1
:10DDF0000BFB09F307F580711A120DF10C0C40466C
:10DE0000FFF71EFF04F1800020F0FF09C4EB0904B6
:10DE100006FB04F4002CB8BFFF340AEB24215FFAA0
:10DE200081FBC7B2CBF5807202FB07F30BFB07F750
:10DE300021F0FF041A120DF10C0C48462146FFF7A1
:10DE4000FFFE3A0A0DF10C0C484604F5807108F10A
:10DE50000107FFF7F5FE4F45354469DA25F0FF036A
:10DE60005FFA85FB1946CBF580720DF10C0C384634
:10DE70006FEA070A0193FFF7E3FE01990AEB090431
:10DE8000C4F3002A0DF10C0C08F20114384601F518
:10DE900080715A46FFF7D4FE4C45354448DABAF152
:10DEA000000F17D025F0FF0AEFB220465146C7F504
:10DEB00080720DF10C0CFFF7C3FE20460DF10C0C27
:10DEC0000AF580713A4608F20124FFF7B9FE4C4585
:10DED00035442DDA25F0FF08EFB22046AD19414652
:10DEE000C7F580720DF10C0CFFF7AAFE204608F56D
:10DEF000807104F580743A4625F0FF08EFB20DF109
:10DF00000C0CFFF79DFE20464146C7F580720DF1CF
:10DF10000C0CFFF795FE20460DF10C0C08F58071F6
:10DF20003A4604F58074FFF78BFE4C453544D1DB4F
:10DF300005B0BDE8F08F1A462F46012533465446FA
:10DF40008DF80E501646F246054626E788422DE922
:10DF5000F04104460F461D462CDC96B23B1A314672
:10DF600080B2C3F340080234FFF7C0FD2846E6F74D
:10DF70004FF9A74220DBB8F1000F09D0A0B231461B
:10DF8000FFF7B4FD02342846E6F742F9A74215DB55
:10DF90003146A0B2FFF7AAFD02342846E6F738F969
:10DFA000A0B23146FFF7A2FD02342846E6F730F969
:10DFB000A742EDDABDE8F081BDE8F081BDE8F0816F
:10DFC00091422DE9F0410C4617461D462CDC86B2E5
:10DFD000131B89B23046C3F340080234FFF786FDB5
:10DFE0002846E6F715F9A74220DBB8F1000F09D063
:10DFF000A1B23046FFF77AFD02342846E6F708F969
:10E00000A74215DBA1B23046FFF770FD0234284667
:10E01000E6F7FEF8A1B23046FFF768FD0234284665
:10E02000E6F7F6F8A742EDDABDE8F081BDE8F08149
:10E03000BDE8F08108B5FFF7B9FD49F69873C2F263
:10E0400000030146A3F1B4020448AC3BE6F71EF915
:10E05000D0F1010038BF002008BD00BFE48E0020D1
:10E0600010B5FFF7A3FD49F69874C2F2000401460B
:10E07000A4F1B402A4F1AC030748E6F705F90023C4
:10E08000C21A5042504104F8A80C44F8A43C44F889
:10E09000A03C44F89C3C10BDE48E002038B5144CE4
:10E0A00014F8A83C83B154F8A02C54F8A45C11498E
:10E0B000531C01358A18B3F5805F82F8440044F898
:10E0C000A03C44F8A45C00D238BD54F89C0C002558
:10E0D000431C01F14400A4F1B40144F8A05C44F8ED
:10E0E0009C3CE6F7D7F80028EED004F8A85C38BDD1
:10E0F000989F0020A08E00200846FFF7CFBF00BFEA
:10E1000038B50E4C14F8A80C18B916E02020FFF70B
:10E11000C5FF54F8A03C002BF8D154F89C1C084AC9
:10E12000090302F108030025064804F8A85CE6F795
:10E13000B3F8421B5042504138BD38BD989F002073
:10E14000E49E0020E48E00202DE9F047A14E86B029
:10E15000A14CA6F18805814688460FCC0FC57846AC
:10E1600071466A463B464FF01C0A4FF0440E4FF092
:10E17000000CC4F2020AC4F2020E46F8980C46F8EB
:10E18000941C46F8902C46F88C3C06AF94E80F009F
:10E19000642485E80F00CAF800C0CEF800C000BFB4
:10E1A000661E00BF741EFAD11F20E6F733F8032065
:10E1B0002146E6F74BF88948DC2123464FF6FF72EB
:10E1C0008DE801020A20FFF78DFD8548CE21234608
:10E1D0004FF6FF728DE801010A20FFF783FD8148A9
:10E1E000C02123464FF6FF728DE881000A20FFF719
:10E1F00079FD38687E687C4D01900296B868FE68AB
:10E20000B22123464FF6FF720095039004960A2030
:10E21000FFF768FD38697E6901900296B869FE696A
:10E22000A42123464FF6FF720095039004960A201E
:10E23000FFF758FD386A7E6A01900296B86AFE6A56
:10E24000962123464FF6FF720095039004960A200C
:10E25000FFF748FD386B7E6B01900296B86BFE6B42
:10E26000882123464FF6FF720095039004960A20FA
:10E27000FFF738FD386C7E6C01900296B86CFE6C2E
:10E280007A2123464FF6FF720095039004960A20E8
:10E29000FFF728FD386D7E6D01900296B86DFE6D1A
:10E2A0006C2123464FF6FF720095039004960A20D6
:10E2B000FFF718FD386E7E6E01900296B86EFE6E06
:10E2C00023465E214FF6FF720095039004960A20C4
:10E2D000FFF708FD386F7E6F01900296B86FFE6FF2
:10E2E000234650214FF6FF720095039004960A20B2
:10E2F000FFF7F8FCD7F88000D7F884600190029609
:10E30000D7F88800D7F88C60234642214FF6FF7279
:10E310000095039004960A20FFF7E4FCD7F89000DC
:10E32000D7F8946001900296D7F89800D7F89C60CF
:10E33000234634214FF6FF720095039004960A207D
:10E34000FFF7D0FC0095D7F8A050D7F8A400D7F875
:10E35000A8600195D7F8AC50234626214FF6FF72EE
:10E360000290039604950A20FFF7BCFC2146234641
:10E3700020461E4C4FF6FF720094FFF7B3FC1C487A
:10E38000FFF76EFE4FF440464FF00054C2F2000615
:10E39000254615F8010BFFF781FE60786C1CFFF72E
:10E3A0007DFEB442F4D1FFF7ABFE014648B11149FE
:10E3B000002000914FF6FF7201460346FFF792FCE2
:10E3C000FEE70D4A034600924FF6FF72FFF78AFC04
:10E3D000F6E700BF989F0020303302088833020818
:10E3E00098330208A8330208C0330208DC3302085D
:10E3F000F0330208FC330208183402080FB470B579
:10E4000082B006AD55F8042B49F698744EF2F90126
:10E41000C2F200040020C0F601012B4654F8A46C9F
:10E42000019504F05DFC54F8A40C801B02B0BDE81B
:10E43000704004B0704700BF70B50646002409E084
:10E440000D4804F035FD0C48FFF7F4FD90B1B4F52C
:10E450007A7F0FD023460D213246074804F028FD6D
:10E460000548FFF7E7FD651C0D21023432462B46B7
:10E470000028E5D1004870BD309F00202DE9F00F45
:10E4800084B0002800F0EA804FF6FF73984200F055
:10E49000EB8048F21041884200F0E8801F2800F02D
:10E4A000E780B0F5FC6F00F0E580B0F5784F00F044
:10E4B000E38040F2FF72904200F0E0804FF6E0739C
:10E4C000984200F0DD804FF61F01884200F0DA80AC
:10E4D000102800F0D980B0F5806F00F0D780B0F53B
:10E4E000004F00F0D58043F6E712904200F0D28052
:10E4F000C50000F4FC64E410EDB200F478400112B1
:10E50000A5F1F802A4F1FC0A002AB8BF5242BAF100
:10E51000000FB8BFCAF1000AA1F1F8002E190028B7
:10E52000B8BF404202EB0A0B8F190BEB0006B74253
:10E5300000F398803E460023A5F1800C8CEAEC782D
:10E54000A8EBEC78A4F1800787EAE779A9EBE779F3
:10E55000CDF80080A1F1800787EAE77CACEBE77C8F
:10E56000DDF80080CDF808C008EB0907CDF804906D
:10E57000DDF808904F44BE42D4BF3746022384EAF8
:10E58000E47CACEBE47C62440392DDF80C8081EA2D
:10E59000E172A2EBE17208EB0206B742D4BF3E463D
:10E5A000032385EAE577A7EBE577BA4402EB0A098E
:10E5B0004E45D8BFB1460CEB070600EB0608C8BFB6
:10E5C0000423C1459344D4BFC8460523D845D8BFCA
:10E5D000C346DDF80C808244C8BF06234044D345BF
:10E5E000DDF80080D8BFDA46C444C8BF072382459F
:10E5F00002EB0C08D4BF504608234045D8BF8046E4
:10E600000198C8BF0923C719D719B845D8BF4746CD
:10E61000DDF80880C8BF0A2308EB06008742D4BF94
:10E6200038460B23383D3C3C002DB8BF6D42002CD2
:10E63000B8BF644238390029B8BF49422C19611863
:10E640008842D8BF01463244C8BF0C239142C4BFA0
:10E6500011460D238A42ACBF18460E2004B0BDE817
:10E66000F00F7047012367E70120F7E70220F5E785
:10E670000320F3E70420F1E70520EFE70620EDE7AC
:10E680000720EBE70820E9E70920E7E70A20E5E7AC
:10E690000B20E3E70C20E1E7F8B5FFF7E1FC7F4C46
:10E6A00004F136066078651CFFF7F8FC02346878E0
:10E6B000FFF7F4FCB442F5D10020FFF7EFFC002097
:10E6C000FFF7ECFC0020FFF7E9FC0020FFF7E6FC79
:10E6D000F820FFF7E3FCFC20FFF7E0FCF820FFF751
:10E6E000DDFC0020FFF7DAFC8020FFF7D7FC80205C
:10E6F000FFF7D4FC8020FFF7D1FC0020FFF7CEFC11
:10E700000020FFF7CBFC0020FFF7C8FCF820FFF744
:10E71000C5FC0020FFF7C2FC0020FFF7BFFCFC2077
:10E72000FFF7BCFC0020FFF7B9FC0020FFF7B6FCA8
:10E73000F820FFF7B3FC0020FFF7B0FC0020FFF744
:10E74000ADFC0020FFF7AAFC0020FFF7A7FCFC208F
:10E75000FFF7A4FCF820FFF7A1FC0020FFF79EFCC8
:10E76000F820FFF79BFCFC20FFF798FC0020FFF748
:10E7700095FC0020FFF792FCF820FFF78FFC0020AB
:10E78000FFF78CFCF820FFF789FC0020FFF786FCE0
:10E790000020FFF783FC0020FFF780FC8020FFF7BC
:10E7A0007DFC0020FFF77AFC0020FFF777FC80203B
:10E7B000FFF774FC0020FFF771FC0020FFF76EFCF0
:10E7C0008020FFF76BFC0020FFF768FC0020FFF7BC
:10E7D00065FC0020FFF762FC3820FFF75FFC3C205F
:10E7E000FFF75CFC3820FFF759FC0020FFF756FCD0
:10E7F0000020FFF753FC0020FFF750FC0020FFF73C
:10E800004DFC0020FFF74AFC0020FFF747FC0020EA
:10E81000FFF744FC0020FFF741FC0020FFF73EFC1F
:10E820000020FFF73BFC0020FFF738FC0020FFF73B
:10E8300035FC0020FFF732FC002500242946204645
:10E8400002F08CFFFFF71AFE29460746601C02F013
:10E8500085FFFFF713FE40EA0710A61CC0B2FFF7C2
:10E860001DFC2946304602F079FFFFF707FE2946D6
:10E870000746E01C02F072FFFFF700FE40EA0711B6
:10E88000C8B20434FFF70AFCB4F5C87FD6D101350D
:10E89000F02DD2D1BDE8F840FFF732BC4F3302086B
:10E8A0002DE9F04F1D461446454B89B04FF0000945
:10E8B0000026002754EA0501CDE90467CDE9026787
:10E8C0000093ADF81890ADF81A908046CA466AD009
:10E8D000D0E90423944275EB030127DB98F8280064
:10E8E00028B1D8F8001040468B6969469847D8E9A6
:10E8F0000623A24273EB050138DB944275EB03015A
:10E9000042DB98F8283073B100220023C8E90423C1
:10E91000C8E906230021C8F80410A8F82010A8F8B8
:10E92000221088F8281009B0BDE8F08FD0F804B0A4
:10E93000D0E90623ABFB04010BFB051103F036FD08
:10E94000C0EB0B0B8345C9D932463B46A24273EB61
:10E950000501C8F80490C8E90467C8E90667A8F883
:10E960002090A8F8229088F82890C6DAD8F80020DD
:10E9700040465369694698470028B8D1D8E906232C
:10E98000944275EB0301BCDAD8F8001040468A695E
:10E99000694690470028F1D1D8E90601844275EB19
:10E9A0000101B1DBADE7C0E90445C0E90645A0F8C7
:10E9B0002090A0F82290C0F8049088F82890B2E740
:10E9C000E82E02082DE9F8430646302002F0B2F99D
:10E9D000D6E90623D6E904457768B6F82090B6F85C
:10E9E000228096F828C0F66AC0E90623C662074B63
:10E9F000074EC0E9044580E8C0008360A0F820907D
:10EA0000A0F8228080F828C0BDE8F883E82E02082C
:10EA100090340208844640682DE9F003002853D062
:10EA20009CF82840DCF82C6074B94FF6EE7730186B
:10EA3000CFF6FF7700F11102BB1B9818CCF8040049
:10EA400012F9015D002DF8DB00F11004471E3619A4
:10EA500000250024FB0706F1020838D418F8017DD0
:10EA6000EB0107F07F0543EA5463EEB2E4010022B4
:10EA7000013846EA040442EA03053BD12009DCE9F7
:10EA8000046740EA05722B09B046B946BCF822007B
:10EA9000B8EB020869EB0309C1E90267DCE9062368
:10EAA00004F00F04C1E90423CCE90489CCE906672A
:10EAB00048830C8300234FF6FF71ACF82240ACF87A
:10EAC00020108CF828300120BDE8F003704718F8BA
:10EAD000019CB046002018F9016B034609F07F0243
:10EAE0000546D4B29E42384644EA030445EA03058B
:10EAF000C4DAB3E718F9017C9742BFDA18F8016D60
:10EB0000EB0118F9019C06F07F05002243EA5463EB
:10EB1000EEB2E4010138914546EA040442EA0305F5
:10EB2000ACDA9BE72DE9F00F90F8284082B08C46D4
:10EB3000002C40F08780D0F82C804168D8F8004045
:10EB4000A14218D3D8E90245B8F81090D0E9066779
:10EB5000ACF81A90A41945EB0705428CA64277EB56
:10EB60000509CCE90267CCE90445ACF8182002DAC3
:10EB7000012380F82830D8F80050A9421DD3DCF8D2
:10EB80001070DCF81440BCF81810BCF81A60DCE90E
:10EB90000223C0E904238761C461DCE90423DCE9C2
:10EBA0000245944275EB030701844684ACBF002004
:10EBB000012002B0BDE8F00F704700244FF0000ABA
:10EBC0004FF0000BCDF804C008EB0106B67CA4F1B1
:10EBD000200706F07F02D5B2C4F1200905FA07FC30
:10EBE00025FA09F313EA270338BF634605FA04F749
:10EBF000013107344BEA030B330641604AEA070A46
:10EC0000E4B2E1D44FEA1A1646EA0B77DDF804C005
:10EC1000D0E906234FEA1B15BC1845EB0305418CD0
:10EC2000CCF81040CCF814500AF00F0627462C46BA
:10EC30000025CCE90223ACF81810ACF81A6080F873
:10EC40002850A6E70020B4E700230022F0B4C0E972
:10EC50000623C0E90423074F074B002504468360C1
:10EC6000058445842E460760456084F82850C162BB
:10EC7000F0BC704790340208E82E0208014B036094
:10EC8000704700BF70340208014B0360704700BF3B
:10EC900070340208024A034982600160704700BF75
:10ECA000D02E02087034020838B50546202002F044
:10ECB00041F80D4904462868002200232160002104
:10ECC000C4E90423C4E90223218361834369214603
:10ECD00028469847054620B9226820465468A04730
:10ECE0002C46204638BD00BFE82E0208034B10B565
:10ECF0000446036002F02EF8204610BD703402086E
:10ED0000044B054910B504468360016002F022F807
:10ED1000204610BDD02E020870340208034B10B5F7
:10ED20000446036002F016F8204610BD7034020855
:10ED3000416910B4002903DB02FA01F010BC7047EE
:10ED40004942C1F12000A1F1200403FA00F022FAA7
:10ED500001F243FA04F340EA020133EA240028BF37
:10ED60000846EBE74369002B03DB41FA03F0C117C8
:10ED70007047584201FA00F0C117704743692DE906
:10ED8000F00FD0E90867002B8C464CDB41FA03F406
:10ED90002146E3174468D0F808808A1943EB07033B
:10EDA000444519D02068844516DD04F11806C6EBE9
:10EDB0000801090727D556E9020156E904AB04F119
:10EDC0003006B0EB0A0061EB0B0156F8184C121834
:10EDD00043EB0103A44516DC10461946BDE8F00FCD
:10EDE000704759F8181B8C45F6DD56F8187C59E920
:10EDF000020159E90445001B61EB0501121843EBC0
:10EE00000103BC45E8DD56E9024556E90401241A30
:10EE100065EB0105121943EB0503B045B14606F158
:10EE20003006DED1D8E759420CFA01F21146D31769
:10EE3000B0E700BF2DE9F00FD0F808C04668824661
:10EE40006645904699466AD0D6E90445444575EB37
:10EE5000090167DA06F11807C7EB0C01002200234D
:10EE6000090729D557E904233E461837A21A65EB4E
:10EE7000030357E90245444575EB09011CDBD6E95C
:10EE80000201804579EB010425DB306832E05BE963
:10EE90000245444575EB0901F1DA5BE90401201AEA
:10EEA00065EB0101121843EB010357E902454445A4
:10EEB00075EB09015E46E2DA57E90401201A65EBB9
:10EEC0000101121843EB0103BC4507F1180B3E4644
:10EED00007F13007DBD1DAF81410B8EB020269EB66
:10EEE0000303DAE90845121B63EB0503002904DB81
:10EEF00002FA01F0BDE8F00F70474842C0F120056A
:10EF0000A0F1200422FA00F203FA05F543FA04F016
:10EF100045EA020330EA240028BF1846EAE7002247
:10EF20000023D8E700220023A9E700BF2DE9F0471E
:10EF300082460068CAF8141001689AB0DAE906231C
:10EF40008C68A047DAF80000002200230468CDE9AD
:10EF50001623CDE914237F4B002612A91293ADF896
:10EF60006060ADF8626062699047DAF81400DAF820
:10EF700028700028DAF81010C0F28C8101EBD173F0
:10EF80005A1047FA00F742FA00F10897CB17FF171B
:10EF900004910997059300220023DDE904018242D0
:10EFA00073EB010190469946C0F2DC8000211646C1
:10EFB0001F46694803F05EFFDDE90401DAE9062334
:10EFC000801B61EB070110EB080041EB0901121AED
:10EFD00063EB0103002A73F1000EC0F25581CAE908
:10EFE000082311465D4803F045FFDAE90823DAF803
:10EFF00000000768BE68B047DAF804300026CAF897
:10F0000008300AF10407DAF8000012A9026853690F
:10F010009847D0B9DAF80420DAF808004AF6AB23AA
:10F02000811ACA10CAF6AA2303FB02F353B1A0F156
:10F030001001D1E90001DDE91423824273EB0104E0
:10F04000C0F237811AB0BDE8F087DDE91489504677
:10F0500042464B46FFF7EEFEDAF810108842D9DA46
:10F06000DAF81400DDE9162314461D46B4EB080453
:10F0700065EB0905002855DB04FA00F4DAF82800EE
:10F08000A042C0DAC8EB02023548414603F0F2FE66
:10F09000DAF814500C96002D0D96DAF82C2053DB7C
:10F0A00042FA05F52846EB17DA0F821843F1000300
:10F0B0005D104FEA3204DDE91423121943EB050316
:10F0C000DDE91601001B61EB0501DAE90845A24202
:10F0D00073EB050ECDE90E23CDE9100103DACDE97E
:10F0E0000E4522462B46824273EB01048BDA5046D2
:10F0F000FFF7A0FEDAF808C0DAF80C400C90A4453F
:10F1000000F0E680BCF1000F07D064460CAD0FCDD7
:10F110000FC495E8030084E803000CF11801CAF855
:10F12000081070E74342C3F1200CA3F1200024FA39
:10F1300003F105FA0CFE45FA00F44EEA010334EA45
:10F14000200428BF1C4699E76C4202FA04F10846E5
:10F15000CB17A9E7E82E0208E0340208B034020811
:10F16000C434020816461F46DAF8000012A90268E5
:10F1700093699847002866D0DDE91445DDE916015A
:10F18000001B61EB0501DAE90623CDE90601DDE9A3
:10F190001601824273EB01015FDBDDE90645DDE923
:10F1A0000623DDE90801824273EB01014DDBDAF849
:10F1B0001410DAF82C20002955DB42FA01F3D91794
:10F1C00002930391039ADDE902014FEAD27E10EB2C
:10F1D0000E0041F100014B104FEA3002CDE900234F
:10F1E000944275EB030330DBDDE90001801941EB4C
:10F1F0000701DDE90423904271EB0303CDE90A0125
:10F2000038DADDE90601001B61EB0501CDE90601F5
:10F21000DDE90623DDE9000118EB040849EB0509E7
:10F2200082428B4101DADDE90601DDE90223101A91
:10F2300063EB0101361847EB0107DDE90401864263
:10F2400077EB010390DB4146B3E618EB040849EB8A
:10F250000509361947EB0507EFE7CDE91623141B1F
:10F2600063EB05059BE74B4202FA03F0C2170290DD
:10F270000392A7E7DDE9000118EB000849EB01095B
:10F28000DDE90A67414694E600220023CAE9082323
:10F290000021A7E601EBD17346425A1007FA06F7A0
:10F2A00002FA06F0F917C617089704900991059617
:10F2B00071E6DAF8000012A904686369984700282B
:10F2C0007FF4C0AEDAF808101839CAF80810B9E6A9
:10F2D00038460CA900F026F995E600BF2DE9C84391
:10F2E000D0E9066732463B4680468946FFF7A2FDD5
:10F2F00000EB09014046FFF741FD8F4208BF8642FF
:10F30000C8E906010ED0002871F1000303DA0022DB
:10F310000023C8E90623D8F814104046BDE8C843C6
:10F32000FFF704BEB9F1000F07DD012200238018AA
:10F3300041EB0301C8E90601E5E7E4D04FF0FF32F5
:10F3400080184FF0FF3341EB0301C8E90601DAE70B
:10F350004169C0E90623FFF7E9BD00BF38B501EBFD
:10F36000D175002301616D1000290446436083605C
:10F37000C360036043618562B8BF033110688910C0
:10F38000E1620369104698472168206019B10A6854
:10F39000084653689847002200232046C4E9082302
:10F3A000FFF7D6FF204638BD2DE9F8430C46096823
:10F3B00047686160D0F808804AF6AB22C7EB0803C3
:10F3C000DB10CAF6AA2202FB03F305464AF6AA207E
:10F3D000C0F6AA20834200F29F80A068401AC010A5
:10F3E00002FB00F2934264D8474560D0D4F804C0D1
:10F3F000A368C7EB080018389C45C0F3C00900F0AB
:10F400008180BCF1000F07D065463E460FCE0FC588
:10F4100096E8030085E803000CF1180262601837D3
:10F42000B84544D0B9F1000F15D0D4F804C0A16894
:10F430008C456CD0BCF1000F07D065463E460FCE20
:10F440000FC596E8030085E803000CF11800606022
:10F450001837B84554D0D4F804C0A3689C453DD0B3
:10F46000BCF1000F07D065463E460FCE0FC596E8AB
:10F47000030085E803000CF118026260D4F804C0B0
:10F48000A16818378C4533D0BCF1000F07D0654612
:10F490003E460FCE0FC596E8030085E803000CF149
:10F4A000180060601837B845D5D1BDE8F883BDE8CD
:10F4B000F88313B303EB4301CF00384601F03AFC65
:10F4C0002168064611B1084601F044FC26606660DA
:10F4D000F619D5F808806F68A66085E7394620469A
:10F4E00000F020F8D4F804C0A16818378C45CBD1BF
:10F4F0002046394600F016F8D4E71F461E46E1E7DD
:10F50000BDE8F8832046394600F00CF887E720462E
:10F51000394600F007F89BE7014801F0EFFB00BF18
:10F52000EC3402082DE9F84F0646326840684AF686
:10F53000AB23841AE510CAF6AA2303FB05F70D4690
:10F540002FB179008F423CD96FF00F0901E04FF0E5
:10F550001809484601F0EEFBD6F800C072684AF67A
:10F56000AB23CCEB02084FEAE804CAF6AA2303FB5C
:10F5700004F808EB480A4FEACA0A10EB0A0B0746E0
:10F5800006D05C460FCD0FC495E8030084E8030065
:10F59000B8F1000F06D061463846524603F0D9FA5A
:10F5A000D6F800C00BF11804BCF1000F02D0604681
:10F5B00001F0D0FB07EB090137607460B160BDE872
:10F5C000F88F4AF6AA20C0F6AA208142BCD84FF094
:10F5D000180909FB01F9BCE72DE9F0410446657BF8
:10F5E00080690E46C100012D606815D0022D08BF4C
:10F5F000C1EB0000181A0DD481420BDD237BA568F6
:10F60000012B00F0A68053B1002D03DB05F10D079F
:10F61000974206DBBDE8F081A0EB6100EAE70E3D12
:10F62000F2E700280346B8BFC31D0721C8F2000156
:10F6300062690140DB10002912F80380C0F28B8060
:10F64000404689B2E4F7E8FD237CB8F1200F08BFFB
:10F650000020C0F380029A421CBFE28926F81520E0
:10F660004210C2F38000984203D0E089691C26F85A
:10F6700011005210C2F38000984203D0E089A91C07
:10F6800026F811005210C2F38000984203D0E0899E
:10F69000E91C26F811005210C2F38000984203D0F2
:10F6A000E089291D26F811005210C2F3800098420B
:10F6B00003D0E089691D26F811005210C2F38000C2
:10F6C000984203D0E089A91D26F811005210C2F318
:10F6D0008000984203D0E089E91D26F811005210FD
:10F6E000C2F38000984204D0E08905F1080126F8B1
:10F6F00011005210C2F38000984204D0E08905F155
:10F70000090126F811005210C2F38000984204D07B
:10F71000E08905F10A0126F811005210C2F38000B9
:10F72000984204D0E08905F10B0126F8110052102F
:10F73000C2F38000984203D0E1890C3526F81510F9
:10F74000C2F3C0029A421CBFE38926F81730BDE815
:10F75000F081073D58E7013961F00700411C6FE770
:10F7600070B5044608460D4603F01AFAA061013050
:10F7700001F0F2FAA26929460132064603F0E0F9E7
:10F780006069666118B1BDE8704001F0E7BA70BD0C
:10F7900038B541600849002582604FF6FF72044683
:10F7A000016005734573C281057445611946FFF711
:10F7B000D7FF204638BD00BF203502088069C00051
:10F7C000704700BF014B0360704700BF0835020857
:10F7D000704700BF034B10B50446036001F0BAFA4E
:10F7E000204610BD0835020810B5084B0446406994
:10F7F000236008B101F0B2FA054900206061216080
:10F80000204601F0A7FA204610BD00BF20350208AF
:10F810000835020810B5064B04464069236008B15C
:10F8200001F09CFA0349002060612160204610BD70
:10F8300020350208083502082DE9F04706460F4634
:10F84000806B1946FFF79AFA4FF0000804460D4600
:10F85000C24606F11809718ED6E90A2368EA010842
:10F860004AEA010A944275EB03011FFA88F82ADA82
:10F87000B18A1AEA010F08EA010333D0002B39D00C
:10F880007368B268981883422ADAB18907EB430398
:10F8900007EB4007FA1A23F8021B901EBB42C0F385
:10F8A000400130D021B1B28923F8022BBB422CD0C9
:10F8B000B0891A4622F8020BB1895980931CBB42C9
:10F8C000F6D1BDE8F0873069494603685A69904728
:10F8D0000028C0D1D6E90A01844275EB0101C7DBDB
:10F8E000BDE8F087002BFBD0B289706827F81020A4
:10F8F000BDE8F0877168B368B289C818411E27F85F
:10F900001120BDE8F087BDE8F087BDE8F08700BFB3
:10F9100010B50446806BFFF731FA024620690B46AA
:10F92000016889688847206904F1180103685A69E9
:10F93000904710BD2DE9F041114C0646002708689C
:10F9400086E890004FF6FF751024B460B581046915
:10F9500008461D469046A047012303FA05F30949CE
:10F96000002400253061B382C6E90A45C6E908458E
:10F97000B16137867786C6F838803046BDE8F081B9
:10F9800038350208E82E020810B5084B044608492D
:10F9900000692360A16110B1026853689847054966
:10F9A000002020612160204610BD00BF38350208CC
:10F9B000D02E02080835020810B5094B0446094943
:10F9C00000692360A16110B1026853689847064935
:10F9D000002020612160204601F0BCF9204610BDC6
:10F9E00038350208D02E0208083502080000000051
:10F9F000F0B44FF6FF760A4F8680C68014260025A5
:10FA00008660DC2604460760C660C0E90423856181
:10FA1000C561056245628562C5620163F0BC7047DD
:10FA2000503502082DE9F0434FF44A46C3F69A36A2
:10FA3000A2FB064506FB035585B0DDE90C23814694
:10FA400088462046294602F0B1FC04460D46B4F52E
:10FA50007A7F75F100015DDB44F23F22C0F20F02B4
:10FA60000023A24273EB050142DB4FF47A760027B4
:10FA70002046294632463B4602F098FC0928844637
:10FA800041DCC01706FB00F0A6FB0C230CFB0701B2
:10FA9000CB18A41A65EB03050A23A4FB0301324625
:10FAA00003FB05113B46CDF80CC002F07FFCDDF8EE
:10FAB0000CC0009041462A4A4846634603F0F8F9D4
:10FAC000002F08BFB6F57A7F8144C0EB080136D01D
:10FAD00044F24022C0F20F0200239F4208BF964228
:10FAE000484626D01F4A05B0BDE8F04303F0E0B910
:10FAF00017A3D3E90023A24273EB050113DA16A77B
:10FB0000D7E90067B4E748464146174A634603F021
:10FB1000CFF9D5E7154A48464146234605B0BDE82A
:10FB2000F04303F0C5B944F24026C0F20F060027A7
:10FB30009EE70F4A05B0BDE8F04303F0B9B90D4A9E
:10FB4000484605B0BDE8F04303F0B2B9AFF300801A
:10FB5000FFC99A3B0000000000CA9A3B0000000069
:10FB600068350208803502087435020860350208DD
:10FB70007C350208783502082DE9F003069DC4683B
:10FB80002D68103C6E1FA242B8BF14469E4221DB76
:10FB90008268F31A9A18C3F1050CA2424FEA4C0C82
:10FBA0004FEA430813DA0026531C878803EB0C0541
:10FBB000AB4221F8127001EB42073EDBA342BCBF0F
:10FBC000828821F8132003EB0802A242ECDBBDE897
:10FBD000F003704705359D4257DCEE1A8268771DA9
:10FBE0007542BB186E007F00A342F0DA4FF0000CA4
:10FBF00085889A1921F81350A242BCBF838821F846
:10FC00001230531CDD19AB4236DAA342DFDA6FEA59
:10FC10000308A84418F0010F01EB42022FD1013371
:10FC2000AB4222F802CF27D0A34203F10103CED08A
:10FC3000A34222F802CFF2D1C9E7A342C3DA6FEAA6
:10FC40000309A94419F0010F3A4604D00133BA1C44
:10FC5000A3427E80B7D00133AB4222F8026FADD011
:10FC6000A342B0D00133A34222F8026FF3D103EBD9
:10FC70000802A24298DBAAE7A342B9DBA7E7013357
:10FC8000A34222F802CFCAD1A1E7084652000021C0
:10FC9000BDE8F00302F075BF2DE9F04F8469074617
:10FCA000C06983B084420E4690461D462DD023681D
:10FCB000011BA3F10A021839AA42C1F3C0015FDD9A
:10FCC0001834A04221D051B12368A3F10A02AA42FC
:10FCD00002DC0A339D4256DD1834A04215D021685B
:10FCE000A1F10A030A31AB4201DC8D424BDD18342D
:10FCF00023682146A3F10A02AA4202DC0A339D428C
:10FD000041DD01F11804A042E9D1D7F824A0D7F8C9
:10FD10002890CA4531D0DAF80040CAEB090EE768EE
:10FD20005046314642462B460AF11C04AEF11C0BEC
:10FD3000B847A145CBF3800B1FD0BBF1000F0AD011
:10FD400027682046FF68314642462B460AF13804B0
:10FD5000B847A14511D027682046314642462B4678
:10FD6000FF68B847E36904F11C00DF68314642468A
:10FD70002B463834B847A145EDD103B0BDE8F08F2C
:10FD80000A339D429CDC00943846314642462B465D
:10FD9000FFF7F2FEB9E700BF2DE9F04F80468BB0C8
:10FDA0000491006B08F118019246FFF7FDFAD8F8AC
:10FDB0002460D8F82850AE4220D03368AA1B1C3AE1
:10FDC0001968304606F11C04C2F380078847A54233
:10FDD00014D03FB1236820461A6806F138049047D2
:10FDE000A5420BD0216820460B689847E26904F1D0
:10FDF0001C00116838348847A542F3D1D8F81C009C
:10FE0000D8F818304AF6AB2BC21AD110CAF6AA2B72
:10FE100008F1240948460BFB01F1C8F8286000F0FE
:10FE2000EBF8D8F81830D8F81C10C81AC2100BFB21
:10FE300002F000284FD0002608F10C0437460125B7
:10FE40000594CDF80CA00BE0C81AC2104AF6AB20FE
:10FE5000CAF6AA2000FB02F20137183697423AD2BE
:10FE60009A599C19002AEFD0D4E904ABD4E90223B3
:10FE700007A8BAEB02026BEB03030A21D8E904AB33
:10FE8000CDE900ABFFF7CEFDD9F804E0D9F8083092
:10FE900070469E4522D007AB2168D8F80C20BEF1F1
:10FEA000000F24D0FFF774FCD8F828001C30C9F8E4
:10FEB0000400B8F8061050F81C2C20F80E1C9368AB
:10FEC00000F80F5C04991C38039A9847D8F81C1066
:10FED000D8F81830B8E70BB0BDE8F08F4846214697
:10FEE000059A07AB00F05AF9D8F82800E1E7704608
:10FEF000DCE700BFAFF300802DE9F041456A866A78
:10FF00001A4BB5420746036023D02868721B1C3A7F
:10FF1000016805F11C042846C2F380088847A64200
:10FF200016D0B8F1000F07D0236820461A6805F1F3
:10FF300038049047A6420BD0256820462968884798
:10FF4000E36904F11C001A6838349047A642F3D1E3
:10FF50007D6A15B1284600F0FDFEB86908B100F0D1
:10FF6000F9FE034938463960BDE8F0815035020892
:10FF7000083502082DE9F041456A876A1C4BBD42ED
:10FF80000646036023D028687A1B1C3A016805F1F5
:10FF90001C042846C2F380088847A74216D0B8F14F
:10FFA000000F07D0236820461A6805F138049047EF
:10FFB000A7420BD02568204629688847E36904F1E9
:10FFC0001C001A6838349047A742F3D1756A15B1FE
:10FFD000284600F0BFFEB06908B100F0BBFE05493D
:10FFE0003046316000F0B6FE3046BDE8F08100BF1B
:10FFF00050350208083502082DE9F84F49F2492327
:020000040802F0
:10000000C0F624139942054600F2C0808268076852
:1000100046F6B750D31B9A10CBF2DB6000FB02F21E
:10002000914201D8BDE8F88FD5F804A0C7EB0A08C3
:100030004FEAA80600FB06F8002900F0A480C1EBF7
:10004000C1014FEA8109484600F074FE0646574553
:1000500060D0C7EB0A031C3B06F11C04DFF838C173
:100060000020C3F38001AEB144F81CCC7A6806F1DD
:10007000140344F8182CBA68B2603A7B32737A7B66
:100080007273FA89F2813A7C32747A697861C2506B
:10009000BB69B36107F11C031C349A4506F11C02CD
:1000A00038D0C9B19AB144F81CCC5F6844F8187CC8
:1000B000996891601F7B1773597B5173DF89D781D2
:1000C000197C11745F6958615761996991611C339A
:1000D0001C321C349A451DD09AB144F81CCC5F6880
:1000E00044F8187C996891601F7B1773597B517392
:1000F000DF89D781197C11745F69586157619969EB
:1001000091611C331C341C32CDD11C331C321C3485
:100110009A45E1D195E88004574525D03C68C7EB66
:100120000A0BABF11C022368384607F11C04C2F32A
:10013000800B9847A24516D0BBF1000F07D021686D
:1001400020460A6807F138049047A2450BD027687B
:1001500020463B689847E16904F11C000A6838347E
:100160009047A245F3D12F6817B1384600F0F2FD51
:10017000C8EBC80806EB880006EB09032E60686030
:10018000AB60BDE8F88F89460E4660E7014800F095
:10019000B5FD00BFEC340208203502082DE9F04F10
:1001A000064646F6B75421C8281A8510CBF2DB6400
:1001B00004FB05F583B08B469A46002D00F0EE80D7
:1001C0006B009D4240F2ED806FF0030840460192C3
:1001D00000F0B0FD96E81002C4EB0902054600F1FC
:1001E0001C07019B22F003002818DBF800101A6896
:1001F00004D05346FFF7CCFA96E81002A14500F070
:10020000C180C4EB09011C39DFF8B0A14FF0000C2C
:10021000C1F38000BDB147F81CAC636805F114025E
:1002200047F8183CA168A960237B2B73617B697335
:10023000E389EB81217C29746369C4F814C04CF80C
:100240000230A269AA6104F11C031C374B4505F179
:100250001C0253D0D0B1A2B147F81CAC586847F883
:10026000180C99689160187B1073597B5173D88969
:10027000D081197C11745869C3F814C05061996910
:1002800091611C331C321C374B4537D003F11C01E4
:1002900007F11C0BA2B147F81CAC586847F8180CC2
:1002A0009F689760187B10735F7B5773D889D081E4
:1002B0001F7C17745869C3F814C050619B6993611F
:1002C0001C3214D04BF81CAC4F684BF8187C886873
:1002D00090600B7B13734F7B5773C889D0810B7C65
:1002E00013744F69C1F814C057618869906101F1B6
:1002F0001C031C324B450BF11C07C7D104F11C0435
:10030000191B46F6B7528F08C3F2DB6202FB07F7F0
:1003100096E8100427F04040431CC3EBC30105EBF3
:1003200081071C3754452DD0C4EB0A0BABF11C00E0
:100330004FEA900302FB03F2216820460B6804F1A8
:100340001C0902F0010B9847CA451AD0BBF1000FF7
:1003500008D0D9F800204846116804F138098847C8
:10036000CA450ED0D9F80040484623689847D9F8C6
:100370001C2009F11C00116809F138098847CA4599
:10038000F0D1346814B1204600F0E4FC05EB08001D
:1003900086E8A000B06003B0BDE8F08F4FF01C0805
:1003A00014E749F24921C0F624118B423FF60CAF05
:1003B000C3EB05174FEA870808E700BF203502089E
:1003C00010B504460069D0E90623FEF733FD6061ED
:1003D00010BD00BF426910B49A4201D010BC7047F2
:1003E000436882689342F9DA541EE21A5408621C88
:1003F000940001EB430180890423221FA34208805B
:10040000C2F38002EAD01AB10823A3428880E5D063
:100410001A1DC8520833A3428852F9D1DEE700BF43
:10042000054A0161026014224260DC2282604FF6BC
:10043000FF72C260704700BF90350208014B036035
:10044000704700BF08350208034B10B5044603602F
:1004500000F080FC204610BD0835020803692DE934
:10046000F04193423ADA86698E4237DD4568D0F82A
:100470000880CF1AB242D4BFC3EB0206C3EB060614
:10048000454527EAE77729D02C4654F8040BC5EBFD
:100490000805016832468B683946043D9847A045F7
:1004A000C5F380051CD045B154F8040B39460268E9
:1004B000936832469847A04514D0254655F8040B5A
:1004C0003946036832469B68984760683946046835
:1004D0003246A3682C1D9847A045EED1BDE8F081B7
:1004E000BDE8F081BDE8F08102692DE9F84F9A423C
:1004F00004469B4688463CDC83699B4539DA46685E
:10050000D0F808904E4534D0C6EB090043071DD4FF
:1005100056F8040B65690168E769C2EB0B03D1F873
:100520000CC07A1B08EB4501E04722690EE07068B9
:10053000236966690168E769D1F80CA0BA1B08EB6A
:100540004601C3EB0B03D04722692E1D354655F8F3
:10055000040BD4F814E0D0F800A0E769C2EB0B0359
:1005600008EB4E01CEEB0702DAF80CC0E047A945D4
:10057000DDD1BDE8F88F00BF70B48361064E039BE8
:1005800000250446066045608560C56001614261E2
:10059000C36170BC704700BFA835020810B5054B99
:1005A00004464068236008B100F0D4FB02492046AD
:1005B000216010BDA83502080835020810B5074BA8
:1005C00004464068236008B100F0C4FB044920469B
:1005D000216000F0BFFB204610BD00BFA835020817
:1005E000083502082DE9F04F002199B08146406995
:1005F000FEF7C4FB04460D46D9F814004FF4C87149
:10060000FEF7BCFBCDE90401D9F8100022460168D1
:100610002B468E68454FB0470FCF10AE0FC697E8F8
:100620000F00D9F8144086E80F006569002407958B
:10063000079800250027CDE90C45CDE90A453C4C3B
:10064000B8420894ADF83870ADF83A70C0F26381E2
:10065000052646FA00F600220023CDE900234FEAE2
:10066000E67A0025CDF80CA0029606954FF0FF3AE9
:100670004FF0FF3B4F46386908A90468626990470C
:10068000002857D1B946079F103700F14A81DDF89D
:1006900000C0019AC7F12003079E2CFA03F5BA4067
:1006A000103E6146B14045EA0203069A604631EACF
:1006B000260128BF194600FA07F0D31701F076FE8D
:1006C000C9F81800B0F5A02F02DA0022C9F81820E6
:1006D000D9F81000D9F814700168D7E906458E687A
:1006E00022462B46B047D9F8100008A903685A697A
:1006F0009047DDE90C67DDE90A2330463946001BE7
:1007000061EB0501A41A65EB0305A04271EB050E30
:10071000B8BF3246D9F81400B8BF3B46FEF78AFB93
:10072000C9F81C0019B0BDE8F08F00BFD035020831
:10073000E82E0208DDE90A89DDE90401804579EB4C
:1007400001039FDADDE90245544575EB0B0305DB38
:10075000BBF1FF3F08BFBAF1FF3F93D1BDF83800AE
:10076000BDF83A404440A6B2F3072BD5DDE9104569
:10077000B5F1FF3F08BFB4F1FF3F21D0B8EB04044F
:1007800069EB0505BBF1FF3F08BFBAF1FF3F00F081
:10079000A680544575EB0B0EC0F2A1802046294679
:1007A00052465B4601F002FE042809DCDDE9002325
:1007B000121943EB0503069DCDE900232918069184
:1007C000CDE9108906F0020290B248B3DDE9124586
:1007D000B5F1FF3F08BFB4F1FF3F1FD0B8EB0404F1
:1007E00069EB0505BBF1FF3F08BFBAF1FF3F7DD0C4
:1007F000544575EB0B0E79DB2046294652465B4685
:1008000001F0D4FD042809DCDDE90023121943EBD3
:100810000503069CCDE9002325180695CDE912892C
:1008200006F004039AB24AB3DDE91445B5F1FF3F7F
:1008300008BFB4F1FF3F1FD0B8EB040469EB050516
:10084000BBF1FF3F08BFBAF1FF3F56D0544575EBEF
:100850000B0E52DB2046294652465B4601F0A6FDB0
:10086000042809DCDDE90023121943EB0503069C8B
:10087000CDE9002320180690CDE9148906F008017F
:100880008BB2002B3FF4F7AEDDE91645B5F1FF3F23
:1008900008BFB4F1FF3F1FD0B8EB040469EB0505B6
:1008A000BBF1FF3F08BFBAF1FF3F2DD0544575EBB8
:1008B0000B0329DB2046294652465B4601F076FDB4
:1008C000042809DCDDE90023121943EB0503CDE917
:1008D0000023069A14180694CDE91689CBE6012365
:1008E000CDE90045A246AB46069369E70121CDE973
:1008F0000045A246AB46069190E7CDE90045AB46E0
:100900000125A2460695B7E70120CDE90045A2469C
:10091000AB460690E0E7079A0521534201FA03F639
:1009200099E67942DDF804E0009DC1F12007A1F1CC
:1009300020040EFA07F6CD4070462041069A2E4359
:1009400030EA240028BF30464EFA01F1D31701F0F7
:100950002DFDC9F81800B5E62DE9F8438569044670
:10096000894690461E4655B1C7692946D81B00F0F6
:100970009BFA294600F050FA3818864201D0BDE8AB
:10098000F883A3689845FADDE568AB4201DBBDE872
:10099000F883DA4302EB0800591EC20709EB410154
:1009A0000CD4A288581C4A808A1C4045E7D0431CBE
:1009B000A84202F1020109D1BDE8F883A2880133FF
:1009C000AB4221F8022FECD1BDE8F883A088AB42FE
:1009D0005080E6D1BDE8F88370B5044609480B683D
:1009E000002520604FF6FF76F020A680E060A5602D
:1009F0001B6908461646984766612061A561E56156
:100A0000204670BDC035020810B5074B044600698A
:100A1000236010B101684A689047044B00202061B0
:100A20002360204610BD00BFC0350208083502080B
:100A300010B5084B04460069236010B101684A688C
:100A40009047054B002020612360204600F082F98A
:100A5000204610BDC035020808350208F0B590F8F0
:100A6000243087B00646002B35D0012B806A34D065
:100A7000D6E90223FEF7DEF9D6E90423F062B06A74
:100A8000FEF7D8F9F46A3063A04204DA2146F06236
:100A9000346304460846001900EBD0756810D6E9A7
:100AA0000223376AF169D6E90445A41A65EB030508
:100AB000002C75F10003A6F84270B063F16311DBFE
:100AC000142101A8094A630002F0F2F906F134008A
:100AD00001A9FEF745FE07B0F0BDD0E90623C6E93F
:100AE0000423C5E7644265EB4505E9E708360208DB
:100AF000104A10B500230446816202601420C82207
:100B00001946A061E26184F824301A464FF6FF705E
:100B100043F2DC432062C0F6020304F13400FEF726
:100B200037FE0221012384F8401084F8413020462A
:100B300010BD00BFF8350208836A90F8241030B465
:100B4000D3E9062329B1012909D002290DD030BCEF
:100B50007047012180F82410C0E90223F7E7022141
:100B600080F82410C0E90423F1E7D0E904459D4250
:100B700008BF944202D0C0E90423E8E7002380F8CC
:100B80002430E4E72DE9F00390F82440002C6BD0EA
:100B9000C46AA34244D0056BAB4241D0A3423ADDC4
:100BA000AB4238DAD0F81C80ED1A1C1BAC42A8BF4F
:100BB0002C46068CA8F10207032C21F8176001EBE4
:100BC000470528DC012C26DD0F1F08EB040C08F17B
:100BD000FF3901EB490407EB4C0CC4EB0C0724F87C
:100BE000026B023F644525F8026DC7F3400712D03F
:100BF0002FB124F8026B644525F8026D0BD024F860
:100C0000026B25F8026C24F8026BAF1E043D6445AC
:100C100027F8026CF3D13430BDE8F003FEF7DCBCFA
:100C20008669C469A642F6DA04F1FF34A51B4FEACF
:100C3000550C0CF101044FEA840C078C042401EBE1
:100C40004606ACF1040564453780C5F38005E2D063
:100C50001DB108246445B780DDD0251D3753083405
:100C600064457753F9D1D6E7BDE8F003704700BF7C
:100C700010B5084B04460849806C2360616308B1D5
:100C800000F06CF80548002260632060A2642046F2
:100C900010BD00BFF83502082035020808350208EB
:100CA00010B5094B04460949806C2360616308B1A3
:100CB00000F054F80648002260632060A2642046D9
:100CC00000F048F8204610BDF8350208203502082B
:100CD0000835020800B543F21060C0F60200714604
:100CE0005DF804EBFDF730BA00B543F22460C0F6BE
:100CF000020071465DF804EBFDF726BA00B543F239
:100D00003860C0F6020071465DF804EBFDF71CBACE
:100D100000B543F24C60C0F6020071465DF804EB8A
:100D2000FDF712BA08B502487146FDF70DFAFEE765
:100D30005C36020838B5754601F05CFE044608B121
:100D4000204638BD02482946FDF7FEF9204638BD49
:100D50006436020801F0B2BEFFF7ECBF01F0AEBE90
:100D60000020704730B481B14FF4605245180446FA
:100D7000C4F20102138803F0800083B2002BF9D083
:100D800014F8010BAC429080F4D1084630BC704797
:100D900091EA000F01EB000302D493EA000F01D4A3
:100DA000184670474FF00040704700BF91EA000FAF
:100DB000C1EB000301D41846704793EA000FFAD53F
:100DC0004FF00040704700BF034691EA030F08440C
:100DD00002D490EA030F03D4B0F1004F00D0704763
:100DE000002BD4BF4FF000406FF00040704700BFB1
:100DF000034691EA030FC1EB000003D4B0F1004FAA
:100E000003D0704790EA030FF8D5002BD4BF4FF002
:100E100000406FF00040704780FB0101CB130028B9
:100E200071F1000207DB83B9020CC0F3C03342EA60
:100E3000014018187047013307D14FF0FF324FF0CF
:100E4000FF33801841EB0301EEE74FF0004070479D
:100E500080FB012330B40446D813002A73F1000547
:100E60000BDB60B9150C45EA0343C2F3C032D0185E
:100E7000B0F1004F03D030BC704701300CD0E40F0C
:100E80000029B4BF214684F0010100290CBF4FF0B6
:100E900000406FF00040EEE74FF0FF324FF0FF33BD
:100EA000C1FB0423DEE700BF2DE9F001074600295E
:100EB00037D081EAE170A0EBE170030D87EAE774B7
:100EC000A4EBE77405461E05002B36D1020745D179
:100ED00005092B073CD1050A2A073BD1050B2B0737
:100EE0003AD1050C01200CB34FF0FF3C03E0640045
:100EF0001CD000281ADBB4FA84F29042B8BF024634
:100F000004FA02F4831A2CFA03F0B4FBF5F202FAA5
:100F100003F832EA000005FB1244464403F1FF30B7
:100F2000E5D04FF00040BDE8F0017047731C580851
:100F300091EA070FF7D54042F5E7460C721CB4FB67
:100F4000F2F6A6FB0023520C42EAC333E41ABDE7D3
:100F50000D20C8E70920C6E70520C4E7002CE5D02E
:100F60001120C1E738B505460C46FFF79DFFB0F1EB
:100F7000004F09D1ED0F002CB4BF2C4685F00104C1
:100F8000002C18BF6FF0004038BD00BF90FBF1F39C
:100F900003FB1100704700BF01FB02F1C2F5807234
:100FA00000FB02F030B4CD170C1845EBE075230AB6
:100FB00043EA056030BC704701FB02F1C2F58032A4
:100FC00000FB02F030B4CD170C1845EBE075230C94
:100FD00043EA054030BC70475342F0B4A0FB0345E0
:100FE000A1FB0267C017C91703FB005502FB01777D
:100FF000A41945EB07052846F0BC70474FF6FF7271
:10100000C0F2010210B50024904206DD00F0010399
:1010100003EB600001349042F8DC002800F0DA8035
:101020000146FFF7F9FE6400B0F5003F05DB00F074
:10103000010144F0010401EB60000146FFF7ECFE02
:101040006400B0F5003F05DB00F0010244F001044C
:1010500002EB60000146FFF7DFFE6400B0F5003FE1
:1010600005DB00F0010344F0010403EB60000146DE
:10107000FFF7D2FE6400B0F5003F05DB00F0010190
:1010800044F0010401EB60000146FFF7C5FE640077
:10109000B0F5003F05DB00F0010244F0010402EB73
:1010A00060000146FFF7B8FE6400B0F5003F05DBC5
:1010B00000F0010344F0010403EB60000146FFF778
:1010C000ABFE6400B0F5003F05DB00F0010144F029
:1010D000010401EB60000146FFF79EFE6400B0F5DD
:1010E000003F05DB00F0010244F0010402EB600068
:1010F0000146FFF791FE6400B0F5003F05DB00F00C
:10110000010344F0010403EB60000146FFF784FE95
:101110006400B0F5003F05DB00F0010144F001047C
:1011200001EB60000146FFF777FE6400B0F5003F79
:1011300005DB00F0010244F0010402EB600001460F
:10114000FFF76AFE6400B0F5003F05DB00F0010325
:1011500044F0010403EB60000146FFF75DFE64000C
:10116000B0F5003F05DB00F0010144F0010401EBA4
:1011700060000146FFF750FE6400B0F5003F05DB5C
:1011800000F0010244F0010402EB60000146FFF7A9
:1011900043FE6400B0F5003F05DB00F0010344F0BE
:1011A000010403EB60000146FFF736FE6400B0F572
:1011B000003F08DA0146FFF72FFEB0F5003FA8BF59
:1011C0000134204610BD00F0010144F0010401EBA0
:1011D0006000EFE72404204610BD00BF2DE9F04772
:1011E000044620B94FF480352846BDE8F087B0F5B5
:1011F000803F0AD046F2AE53C0F20A0398420BDD9C
:101200006FF000452846BDE8F0874BF2E175C0F26B
:1012100002052846BDE8F08743F26E70CFF6F47001
:1012200084423BDB5FEAD47A18BF644204F5803520
:101230002746022640F2F31931042046FFF734FE18
:1012400001463846FFF7E8FD074606F101084F451D
:101250004FEA084120463D4403DC0F2E14D8132FDB
:1012600012DDFFF721FE01463846FFF7D5FD484560
:101270000746054404DCB8F10F0F05D8132803DD39
:1012800008F101061E2ED7D1BAF1000FACD04FF4F1
:1012900080302946BDE8F047FFF706BE0025A3E7EA
:1012A00070B5041E40F3D3800025B4F5C80F0BDDE4
:1012B00049F620112046C0F23601FFF7F5FD04354E
:1012C000B0F5C80F0446F3DC4FF6FF76B4420ADCF3
:1012D00049F620112046C0F23601FFF79DFD043D7E
:1012E000B0420446F4DD4FF40030FFF777FF0146CB
:1012F000201AFFF7D9FDB0F5403FA8BF4FF44030AA
:10130000431C022B00F5003640F29E803046FFF76A
:1013100065FF0146201AFFF7C7FDB0F5403FA8BFA3
:101320004FF44030411C0229064440F28D80304683
:10133000FFF754FF0146201AFFF7B6FDB0F5403F16
:10134000A8BF4FF44030421C022A06447CD93046E4
:10135000FFF744FF0146201AFFF7A6FDB0F5403F16
:10136000A8BF4FF44030431C022B06446CD93046D2
:10137000FFF734FF0146201AFFF796FDB0F5403F16
:10138000A8BF4FF44030411C022906445CD93046C6
:10139000FFF724FF0146201AFFF786FDB0F5403F16
:1013A000A8BF4FF44030421C022A06444CD93046B4
:1013B000FFF714FF0146201AFFF776FDB0F5403F16
:1013C000A8BF4FF44030431C022B06443CD93046A2
:1013D000FFF704FF0146201AFFF766FDB0F5403F16
:1013E000A8BF4FF44030411C022906442CD9304696
:1013F000FFF7F4FE0146201AFFF756FDB0F5403F17
:10140000A8BF4FF44030421C022A06441CD9304683
:10141000FFF7E4FE0146201AFFF746FDB0F5403F16
:10142000A8BF4FF44030431C022B06440CD9304671
:10143000FFF7D4FE0146201AFFF736FDB0F5403F16
:10144000D4BF361806F5403606EB054070BD4FF0A8
:10145000004070BD011E08B514DDB1F5803F09DA0A
:1014600001290BD04FF48030FFF71EFDFFF7C6FDBA
:10147000404208BDBDE80840FFF7C0BD0020CFF6E0
:10148000F07008BD4FF0004008BD00BFFFF7E2BF9D
:101490001C21C4F202010B68DB0709D54A681C2035
:1014A000C4F20200002AF9D1016821F001030360AF
:1014B000704700BF38B504460D46FFF7E9FF1C230F
:1014C000C4F202034FF0C04245F29150DC605D600F
:1014D0009A60186038BD00BF38B504460D46FFF766
:1014E000D7FF1C23C4F202034FF0C04245F28150E3
:1014F000DC605D609A60186038BD00BF00B583B0E5
:1015000002AB23F8020D18460121FFF7D3FF03B009
:1015100000BD00BF70B54FF4A0540646C4F20104EC
:101520004FF48055FFF7B4FFB0B26561FFF7E6FFF7
:10153000FFF7AEFF256170BDF8B54FF4A054074624
:10154000C4F201044FF480550E46FFF7A1FFB8B274
:101550006561FFF7D3FFFFF79BFFB0B22561BDE8E0
:10156000F840FFF7CBBF00BF00B5002385B0EF20E8
:1015700001930293ADF80C30FFF7CCFF01A80521D1
:10158000FFF7AAFFFFF784FF9DF808109DF80600FB
:101590009DF80A2041EA00209DF80C3042EA002123
:1015A00043EA012005B000BD08B5FFF7DDFF49F6AD
:1015B0004073C2F20003186008BD00BF30B5214A75
:1015C00049F227331268C0F204239A4285B00446D8
:1015D0000D460ED04FF40070FFF7AEFF40F2012031
:1015E0002146FFF7A9FF40F20220FFF793FF05B065
:1015F00030BD2A20FFF78EFFEDB20023EF22042139
:101600006846ADF80030ADF80430ADF80620ADF80E
:101610000250FFF74FFF2B20FFF77CFF231202A899
:10162000ADF8083001228F23E4B20421ADF80A405E
:10163000ADF80C20ADF80E30FFF73CFF2C20FFF783
:1016400069FFD4E7409F00202DE9F041424C49F268
:1016500027352468C0F20425AC4282B086460F4686
:1016600090461E4668D040F201207146FFF764FFA5
:10167000002E5ED039464FF40070FFF75DFF40F258
:101680000220FFF747FF01A80221FFF725FF751E83
:10169000FFF7FEFEBDF8062044462E467B1C05F0F3
:1016A000010524F8022B002E43D0B5B119464FF4A2
:1016B00000705D1CFFF740FF40F20220FFF72AFF99
:1016C00001A80221FFF708FFFFF7E2FEBDF80600C0
:1016D000013E2B4624F8020B2BD019464FF4007024
:1016E0005F1CFFF729FF40F20220FFF713FF0221E2
:1016F00001A8FFF7F1FEFFF7CBFEBDF80620254657
:1017000025F8022B39464FF40070FFF715FF40F221
:101710000220FFF7FFFE022101A8FFF7DDFEFFF721
:10172000B7FEBDF80610013E61807B1CAC1C013E7B
:10173000D3D102B0BDE8F081FFF740FF2E20FFF7C4
:10174000E9FE0DF102000121FFF7C6FE40463146D9
:10175000FFF7C2FEEDE700BF409F002000B583B059
:101760000DF106020123FFF76FFFFFF791FEBDF8B1
:10177000060003B000BD00BF684620F007018D469B
:1017800019B54FF48063C4F20003224C00221A8280
:10179000216804204B1C2360E2F75CFD4FF6487380
:1017A000C0430340002B2CD021686268891A0A29A3
:1017B0002AD822686260E168164A8B4202D0D36060
:1017C00013681361226823691249D21AB2F5967F11
:1017D00013D948F6084303407BB148F21F54A2F5E1
:1017E0009672C5F2EB14A4FB02406424400904FB8A
:1017F000102212B9886803438B60BDE81940854602
:10180000704722686261D6E7A26843EA0201A160DC
:10181000CFE700BF449F002049F64473C2F20003A3
:1018200099680840704700BF30B4084BC143BFF30C
:101830005F8F53E8002F02EA010443E80045002DC2
:10184000F7D1BFF35F8F104030BC70474C9F002032
:1018500030B4064B1A69DD681C69A242FAD1034B09
:1018600028401B689A1A0A6030BC7047449F0020C9
:1018700049F64473C2F2000318687047034A1168BE
:1018800013685B1A8342FBD3704700BF449F00205C
:1018900008B5134B1A685869111AB1F5FA7F14D3B9
:1018A00042F21073994234BF0A461A4600211004CE
:1018B000C0F67B01FFF7F8FAFFF790FC002806DB83
:1018C00000F500431814013008BD012008BDB0F533
:1018D000004144BF00F5FF417F310814013008BDCD
:1018E000449F00202DE9F843044690F820008846E4
:1018F00091461D46002800F0A28062689342C0F223
:101900009E80E6689619B34280F29980934200F374
:101910009880A1682369C81801384B1C834236DAC5
:10192000DF433F18013E954208EB410107F00107F4
:1019300000F08F80B54200F08C80B4F81EC0A1F892
:1019400002C001330231834221D097B1954208D1C0
:1019500017E0B5420FD0E78B01334F80023195423B
:101960000FD0B5420DD0E78B01334F800231834257
:101970000DD09542EDD1A78B01334F8002319542B6
:10198000EFD1A78B01334F8002318342F1D1A0699F
:1019900000280FDD27460026786A414602682B465C
:1019A000D2F80CC04A46E047A069013604378642A7
:1019B000F2DB6268D31D9D4241DDE1685218083AAE
:1019C00095423CDA431E002B39DD94F84C00591E39
:1019D00001F0010100284AD101229A422FD071B1B1
:1019E000A11891F84C0038B1E06DA16DA58BA0EB6A
:1019F0004101481F28F8105001329A423FD0511C33
:101A0000D543A21892F84C2060183AB1A66DE26D49
:101A1000A78B06FB0522053A28F8127090F84C00B7
:101A200040B1E26DA06DCD4300FB0520A58B421FA8
:101A300028F812504A1C9A42E1D1BDE8F883BDE86B
:101A4000F883731E9D42A168206907DB0B18581E9E
:101A500063E7B4F81CC0A1F802C072E7A38B0818B2
:101A6000013828F81030A38B28F8113055E7E06DC5
:101A7000A26DA58B821A501F28F81050ACE7BDE864
:101A8000F88300BFF8B590F820300446002B44D00E
:101A900080690026B042E66040DD2546374603E017
:101AA000A36904359E420FDA686A01360774FDF7B0
:101AB00085FEE2689042F3DD686AFDF77FFEA36968
:101AC00004359E42E060EFDBE26861680E3202EBB3
